{
  "contractName": "SecureDrive",
  "abi": [
    {
      "anonymous": false,
      "inputs": [
        {
          "indexed": true,
          "internalType": "string",
          "name": "fileId",
          "type": "string"
        },
        {
          "indexed": false,
          "internalType": "string",
          "name": "ipfsHash",
          "type": "string"
        },
        {
          "indexed": false,
          "internalType": "string",
          "name": "fileName",
          "type": "string"
        },
        {
          "indexed": false,
          "internalType": "address",
          "name": "uploader",
          "type": "address"
        },
        {
          "indexed": false,
          "internalType": "uint256",
          "name": "uploadTime",
          "type": "uint256"
        }
      ],
      "name": "FileUploaded",
      "type": "event"
    },
    {
      "anonymous": false,
      "inputs": [
        {
          "indexed": true,
          "internalType": "string",
          "name": "folderId",
          "type": "string"
        },
        {
          "indexed": false,
          "internalType": "string",
          "name": "folderName",
          "type": "string"
        },
        {
          "indexed": false,
          "internalType": "address",
          "name": "creator",
          "type": "address"
        },
        {
          "indexed": false,
          "internalType": "uint256",
          "name": "createdTime",
          "type": "uint256"
        }
      ],
      "name": "FolderCreated",
      "type": "event"
    },
    {
      "inputs": [
        {
          "internalType": "string",
          "name": "",
          "type": "string"
        }
      ],
      "name": "files",
      "outputs": [
        {
          "internalType": "string",
          "name": "ipfsHash",
          "type": "string"
        },
        {
          "internalType": "string",
          "name": "fileName",
          "type": "string"
        },
        {
          "internalType": "string",
          "name": "fileType",
          "type": "string"
        },
        {
          "internalType": "uint256",
          "name": "fileSize",
          "type": "uint256"
        },
        {
          "internalType": "uint256",
          "name": "uploadTime",
          "type": "uint256"
        },
        {
          "internalType": "address",
          "name": "uploader",
          "type": "address"
        },
        {
          "internalType": "string",
          "name": "folderId",
          "type": "string"
        }
      ],
      "stateMutability": "view",
      "type": "function",
      "constant": true
    },
    {
      "inputs": [
        {
          "internalType": "string",
          "name": "",
          "type": "string"
        }
      ],
      "name": "folders",
      "outputs": [
        {
          "internalType": "string",
          "name": "folderId",
          "type": "string"
        },
        {
          "internalType": "string",
          "name": "folderName",
          "type": "string"
        },
        {
          "internalType": "uint256",
          "name": "createdTime",
          "type": "uint256"
        },
        {
          "internalType": "address",
          "name": "creator",
          "type": "address"
        }
      ],
      "stateMutability": "view",
      "type": "function",
      "constant": true
    },
    {
      "inputs": [
        {
          "internalType": "address",
          "name": "",
          "type": "address"
        },
        {
          "internalType": "uint256",
          "name": "",
          "type": "uint256"
        }
      ],
      "name": "userFiles",
      "outputs": [
        {
          "internalType": "string",
          "name": "",
          "type": "string"
        }
      ],
      "stateMutability": "view",
      "type": "function",
      "constant": true
    },
    {
      "inputs": [
        {
          "internalType": "address",
          "name": "",
          "type": "address"
        },
        {
          "internalType": "uint256",
          "name": "",
          "type": "uint256"
        }
      ],
      "name": "userFolders",
      "outputs": [
        {
          "internalType": "string",
          "name": "",
          "type": "string"
        }
      ],
      "stateMutability": "view",
      "type": "function",
      "constant": true
    },
    {
      "inputs": [
        {
          "internalType": "string",
          "name": "_fileId",
          "type": "string"
        },
        {
          "internalType": "string",
          "name": "_ipfsHash",
          "type": "string"
        },
        {
          "internalType": "string",
          "name": "_fileName",
          "type": "string"
        },
        {
          "internalType": "string",
          "name": "_fileType",
          "type": "string"
        },
        {
          "internalType": "uint256",
          "name": "_fileSize",
          "type": "uint256"
        },
        {
          "internalType": "string",
          "name": "_folderId",
          "type": "string"
        }
      ],
      "name": "uploadFile",
      "outputs": [],
      "stateMutability": "nonpayable",
      "type": "function"
    },
    {
      "inputs": [
        {
          "internalType": "string",
          "name": "_folderId",
          "type": "string"
        },
        {
          "internalType": "string",
          "name": "_folderName",
          "type": "string"
        }
      ],
      "name": "createFolder",
      "outputs": [],
      "stateMutability": "nonpayable",
      "type": "function"
    },
    {
      "inputs": [
        {
          "internalType": "address",
          "name": "_user",
          "type": "address"
        }
      ],
      "name": "getUserFiles",
      "outputs": [
        {
          "components": [
            {
              "internalType": "string",
              "name": "ipfsHash",
              "type": "string"
            },
            {
              "internalType": "string",
              "name": "fileName",
              "type": "string"
            },
            {
              "internalType": "string",
              "name": "fileType",
              "type": "string"
            },
            {
              "internalType": "uint256",
              "name": "fileSize",
              "type": "uint256"
            },
            {
              "internalType": "uint256",
              "name": "uploadTime",
              "type": "uint256"
            },
            {
              "internalType": "address",
              "name": "uploader",
              "type": "address"
            },
            {
              "internalType": "string",
              "name": "folderId",
              "type": "string"
            }
          ],
          "internalType": "struct SecureDrive.File[]",
          "name": "",
          "type": "tuple[]"
        }
      ],
      "stateMutability": "view",
      "type": "function",
      "constant": true
    },
    {
      "inputs": [
        {
          "internalType": "address",
          "name": "_user",
          "type": "address"
        }
      ],
      "name": "getUserFolders",
      "outputs": [
        {
          "components": [
            {
              "internalType": "string",
              "name": "folderId",
              "type": "string"
            },
            {
              "internalType": "string",
              "name": "folderName",
              "type": "string"
            },
            {
              "internalType": "uint256",
              "name": "createdTime",
              "type": "uint256"
            },
            {
              "internalType": "address",
              "name": "creator",
              "type": "address"
            }
          ],
          "internalType": "struct SecureDrive.Folder[]",
          "name": "",
          "type": "tuple[]"
        }
      ],
      "stateMutability": "view",
      "type": "function",
      "constant": true
    }
  ],
  "bytecode": "0x608060405234801561001057600080fd5b506121fb806100206000396000f3fe608060405234801561001057600080fd5b50600436106100885760003560e01c8063718f38a61161005b578063718f38a61461013957806372e4498114610169578063968283791461019c578063e7755761146101b857610088565b80631d4f4f271461008d5780631fc37922146100a95780632b8578fe146100d957806342cfb29214610109575b600080fd5b6100a760048036038101906100a29190611770565b6101ee565b005b6100c360048036038101906100be91906116ca565b6103e3565b6040516100d09190611cc0565b60405180910390f35b6100f360048036038101906100ee91906116f3565b610900565b6040516101009190611d04565b60405180910390f35b610123600480360381019061011e91906116ca565b6109b9565b6040516101309190611ce2565b60405180910390f35b610153600480360381019061014e91906116f3565b610da8565b6040516101609190611d04565b60405180910390f35b610183600480360381019061017e919061172f565b610e61565b6040516101939493929190611e42565b60405180910390f35b6101b660048036038101906101b191906117dc565b610fd7565b005b6101d260048036038101906101cd919061172f565b61126c565b6040516101e59796959493929190611db7565b60405180910390f35b6000815111610232576040517f08c379a000000000000000000000000000000000000000000000000000000000815260040161022990611ed5565b60405180910390fd5b60405180608001604052808381526020018281526020014281526020013373ffffffffffffffffffffffffffffffffffffffff168152506001836040516102799190611ca9565b908152602001604051809103902060008201518160000190805190602001906102a3929190611504565b5060208201518160010190805190602001906102c0929190611504565b506040820151816002015560608201518160030160006101000a81548173ffffffffffffffffffffffffffffffffffffffff021916908373ffffffffffffffffffffffffffffffffffffffff160217905550905050600360003373ffffffffffffffffffffffffffffffffffffffff1673ffffffffffffffffffffffffffffffffffffffff1681526020019081526020016000208290806001815401808255809150506001900390600052602060002001600090919091909150908051906020019061038d929190611504565b508160405161039c9190611ca9565b60405180910390207f1d79a29ed4b7992eb985b9e48422d161204e415e73ca3c9fdb6e789908cfb0f18233426040516103d793929190611d26565b60405180910390a25050565b60606000600260008473ffffffffffffffffffffffffffffffffffffffff1673ffffffffffffffffffffffffffffffffffffffff168152602001908152602001600020805480602002602001604051908101604052809291908181526020016000905b828210156104f25783829060005260206000200180546104659061207e565b80601f01602080910402602001604051908101604052809291908181526020018280546104919061207e565b80156104de5780601f106104b3576101008083540402835291602001916104de565b820191906000526020600020905b8154815290600101906020018083116104c157829003601f168201915b505050505081526020019060010190610446565b5050505090506000815167ffffffffffffffff81111561053b577f4e487b7100000000000000000000000000000000000000000000000000000000600052604160045260246000fd5b60405190808252806020026020018201604052801561057457816020015b61056161158a565b8152602001906001900390816105595790505b50905060005b82518110156108f55760008382815181106105be577f4e487b7100000000000000000000000000000000000000000000000000000000600052603260045260246000fd5b60200260200101516040516105d39190611ca9565b90815260200160405180910390206040518060e00160405290816000820180546105fc9061207e565b80601f01602080910402602001604051908101604052809291908181526020018280546106289061207e565b80156106755780601f1061064a57610100808354040283529160200191610675565b820191906000526020600020905b81548152906001019060200180831161065857829003601f168201915b5050505050815260200160018201805461068e9061207e565b80601f01602080910402602001604051908101604052809291908181526020018280546106ba9061207e565b80156107075780601f106106dc57610100808354040283529160200191610707565b820191906000526020600020905b8154815290600101906020018083116106ea57829003601f168201915b505050505081526020016002820180546107209061207e565b80601f016020809104026020016040519081016040528092919081815260200182805461074c9061207e565b80156107995780601f1061076e57610100808354040283529160200191610799565b820191906000526020600020905b81548152906001019060200180831161077c57829003601f168201915b5050505050815260200160038201548152602001600482015481526020016005820160009054906101000a900473ffffffffffffffffffffffffffffffffffffffff1673ffffffffffffffffffffffffffffffffffffffff1673ffffffffffffffffffffffffffffffffffffffff16815260200160068201805461081c9061207e565b80601f01602080910402602001604051908101604052809291908181526020018280546108489061207e565b80156108955780601f1061086a57610100808354040283529160200191610895565b820191906000526020600020905b81548152906001019060200180831161087857829003601f168201915b5050505050815250508282815181106108d7577f4e487b7100000000000000000000000000000000000000000000000000000000600052603260045260246000fd5b602002602001018190525080806108ed906120b0565b91505061057a565b508092505050919050565b6003602052816000526040600020818154811061091c57600080fd5b906000526020600020016000915091505080546109389061207e565b80601f01602080910402602001604051908101604052809291908181526020018280546109649061207e565b80156109b15780601f10610986576101008083540402835291602001916109b1565b820191906000526020600020905b81548152906001019060200180831161099457829003601f168201915b505050505081565b60606000600360008473ffffffffffffffffffffffffffffffffffffffff1673ffffffffffffffffffffffffffffffffffffffff168152602001908152602001600020805480602002602001604051908101604052809291908181526020016000905b82821015610ac8578382906000526020600020018054610a3b9061207e565b80601f0160208091040260200160405190810160405280929190818152602001828054610a679061207e565b8015610ab45780601f10610a8957610100808354040283529160200191610ab4565b820191906000526020600020905b815481529060010190602001808311610a9757829003601f168201915b505050505081526020019060010190610a1c565b5050505090506000815167ffffffffffffffff811115610b11577f4e487b7100000000000000000000000000000000000000000000000000000000600052604160045260246000fd5b604051908082528060200260200182016040528015610b4a57816020015b610b376115dd565b815260200190600190039081610b2f5790505b50905060005b8251811015610d9d576001838281518110610b94577f4e487b7100000000000000000000000000000000000000000000000000000000600052603260045260246000fd5b6020026020010151604051610ba99190611ca9565b9081526020016040518091039020604051806080016040529081600082018054610bd29061207e565b80601f0160208091040260200160405190810160405280929190818152602001828054610bfe9061207e565b8015610c4b5780601f10610c2057610100808354040283529160200191610c4b565b820191906000526020600020905b815481529060010190602001808311610c2e57829003601f168201915b50505050508152602001600182018054610c649061207e565b80601f0160208091040260200160405190810160405280929190818152602001828054610c909061207e565b8015610cdd5780601f10610cb257610100808354040283529160200191610cdd565b820191906000526020600020905b815481529060010190602001808311610cc057829003601f168201915b50505050508152602001600282015481526020016003820160009054906101000a900473ffffffffffffffffffffffffffffffffffffffff1673ffffffffffffffffffffffffffffffffffffffff1673ffffffffffffffffffffffffffffffffffffffff1681525050828281518110610d7f577f4e487b7100000000000000000000000000000000000000000000000000000000600052603260045260246000fd5b60200260200101819052508080610d95906120b0565b915050610b50565b508092505050919050565b60026020528160005260406000208181548110610dc457600080fd5b90600052602060002001600091509150508054610de09061207e565b80601f0160208091040260200160405190810160405280929190818152602001828054610e0c9061207e565b8015610e595780601f10610e2e57610100808354040283529160200191610e59565b820191906000526020600020905b815481529060010190602001808311610e3c57829003601f168201915b505050505081565b600181805160208101820180518482526020830160208501208183528095505050505050600091509050806000018054610e9a9061207e565b80601f0160208091040260200160405190810160405280929190818152602001828054610ec69061207e565b8015610f135780601f10610ee857610100808354040283529160200191610f13565b820191906000526020600020905b815481529060010190602001808311610ef657829003601f168201915b505050505090806001018054610f289061207e565b80601f0160208091040260200160405190810160405280929190818152602001828054610f549061207e565b8015610fa15780601f10610f7657610100808354040283529160200191610fa1565b820191906000526020600020905b815481529060010190602001808311610f8457829003601f168201915b5050505050908060020154908060030160009054906101000a900473ffffffffffffffffffffffffffffffffffffffff16905084565b600085511161101b576040517f08c379a000000000000000000000000000000000000000000000000000000000815260040161101290611e95565b60405180910390fd5b600084511161105f576040517f08c379a000000000000000000000000000000000000000000000000000000000815260040161105690611eb5565b60405180910390fd5b6040518060e001604052808681526020018581526020018481526020018381526020014281526020013373ffffffffffffffffffffffffffffffffffffffff168152602001828152506000876040516110b89190611ca9565b908152602001604051809103902060008201518160000190805190602001906110e2929190611504565b5060208201518160010190805190602001906110ff929190611504565b50604082015181600201908051906020019061111c929190611504565b50606082015181600301556080820151816004015560a08201518160050160006101000a81548173ffffffffffffffffffffffffffffffffffffffff021916908373ffffffffffffffffffffffffffffffffffffffff16021790555060c0820151816006019080519060200190611194929190611504565b50905050600260003373ffffffffffffffffffffffffffffffffffffffff1673ffffffffffffffffffffffffffffffffffffffff16815260200190815260200160002086908060018154018082558091505060019003906000526020600020016000909190919091509080519060200190611210929190611504565b508560405161121f9190611ca9565b60405180910390207fffe4107079f83df8ac20cbb03184d54ad733985db3c0f86dad79aaab1b36167b8686334260405161125c9493929190611d64565b60405180910390a2505050505050565b6000818051602081018201805184825260208301602085012081835280955050505050506000915090508060000180546112a59061207e565b80601f01602080910402602001604051908101604052809291908181526020018280546112d19061207e565b801561131e5780601f106112f35761010080835404028352916020019161131e565b820191906000526020600020905b81548152906001019060200180831161130157829003601f168201915b5050505050908060010180546113339061207e565b80601f016020809104026020016040519081016040528092919081815260200182805461135f9061207e565b80156113ac5780601f10611381576101008083540402835291602001916113ac565b820191906000526020600020905b81548152906001019060200180831161138f57829003601f168201915b5050505050908060020180546113c19061207e565b80601f01602080910402602001604051908101604052809291908181526020018280546113ed9061207e565b801561143a5780601f1061140f5761010080835404028352916020019161143a565b820191906000526020600020905b81548152906001019060200180831161141d57829003601f168201915b5050505050908060030154908060040154908060050160009054906101000a900473ffffffffffffffffffffffffffffffffffffffff16908060060180546114819061207e565b80601f01602080910402602001604051908101604052809291908181526020018280546114ad9061207e565b80156114fa5780601f106114cf576101008083540402835291602001916114fa565b820191906000526020600020905b8154815290600101906020018083116114dd57829003601f168201915b5050505050905087565b8280546115109061207e565b90600052602060002090601f0160209004810192826115325760008555611579565b82601f1061154b57805160ff1916838001178555611579565b82800160010185558215611579579182015b8281111561157857825182559160200191906001019061155d565b5b509050611586919061161b565b5090565b6040518060e001604052806060815260200160608152602001606081526020016000815260200160008152602001600073ffffffffffffffffffffffffffffffffffffffff168152602001606081525090565b6040518060800160405280606081526020016060815260200160008152602001600073ffffffffffffffffffffffffffffffffffffffff1681525090565b5b8082111561163457600081600090555060010161161c565b5090565b600061164b61164684611f26565b611ef5565b90508281526020810184848401111561166357600080fd5b61166e84828561203c565b509392505050565b60008135905061168581612197565b92915050565b600082601f83011261169c57600080fd5b81356116ac848260208601611638565b91505092915050565b6000813590506116c4816121ae565b92915050565b6000602082840312156116dc57600080fd5b60006116ea84828501611676565b91505092915050565b6000806040838503121561170657600080fd5b600061171485828601611676565b9250506020611725858286016116b5565b9150509250929050565b60006020828403121561174157600080fd5b600082013567ffffffffffffffff81111561175b57600080fd5b6117678482850161168b565b91505092915050565b6000806040838503121561178357600080fd5b600083013567ffffffffffffffff81111561179d57600080fd5b6117a98582860161168b565b925050602083013567ffffffffffffffff8111156117c657600080fd5b6117d28582860161168b565b9150509250929050565b60008060008060008060c087890312156117f557600080fd5b600087013567ffffffffffffffff81111561180f57600080fd5b61181b89828a0161168b565b965050602087013567ffffffffffffffff81111561183857600080fd5b61184489828a0161168b565b955050604087013567ffffffffffffffff81111561186157600080fd5b61186d89828a0161168b565b945050606087013567ffffffffffffffff81111561188a57600080fd5b61189689828a0161168b565b93505060806118a789828a016116b5565b92505060a087013567ffffffffffffffff8111156118c457600080fd5b6118d089828a0161168b565b9150509295509295509295565b60006118e98383611b70565b905092915050565b60006118fd8383611c21565b905092915050565b61190e81612000565b82525050565b61191d81612000565b82525050565b600061192e82611f76565b6119388185611fb1565b93508360208202850161194a85611f56565b8060005b85811015611986578484038952815161196785826118dd565b945061197283611f97565b925060208a0199505060018101905061194e565b50829750879550505050505092915050565b60006119a382611f81565b6119ad8185611fc2565b9350836020820285016119bf85611f66565b8060005b858110156119fb57848403895281516119dc85826118f1565b94506119e783611fa4565b925060208a019950506001810190506119c3565b50829750879550505050505092915050565b6000611a1882611f8c565b611a228185611fd3565b9350611a3281856020860161204b565b611a3b81612186565b840191505092915050565b6000611a5182611f8c565b611a5b8185611fe4565b9350611a6b81856020860161204b565b611a7481612186565b840191505092915050565b6000611a8a82611f8c565b611a948185611ff5565b9350611aa481856020860161204b565b80840191505092915050565b6000611abd601983611fe4565b91507f4950465320686173682063616e6e6f7420626520656d707479000000000000006000830152602082019050919050565b6000611afd601983611fe4565b91507f46696c65206e616d652063616e6e6f7420626520656d707479000000000000006000830152602082019050919050565b6000611b3d601b83611fe4565b91507f466f6c646572206e616d652063616e6e6f7420626520656d70747900000000006000830152602082019050919050565b600060e0830160008301518482036000860152611b8d8282611a0d565b91505060208301518482036020860152611ba78282611a0d565b91505060408301518482036040860152611bc18282611a0d565b9150506060830151611bd66060860182611c8b565b506080830151611be96080860182611c8b565b5060a0830151611bfc60a0860182611905565b5060c083015184820360c0860152611c148282611a0d565b9150508091505092915050565b60006080830160008301518482036000860152611c3e8282611a0d565b91505060208301518482036020860152611c588282611a0d565b9150506040830151611c6d6040860182611c8b565b506060830151611c806060860182611905565b508091505092915050565b611c9481612032565b82525050565b611ca381612032565b82525050565b6000611cb58284611a7f565b915081905092915050565b60006020820190508181036000830152611cda8184611923565b905092915050565b60006020820190508181036000830152611cfc8184611998565b905092915050565b60006020820190508181036000830152611d1e8184611a46565b905092915050565b60006060820190508181036000830152611d408186611a46565b9050611d4f6020830185611914565b611d5c6040830184611c9a565b949350505050565b60006080820190508181036000830152611d7e8187611a46565b90508181036020830152611d928186611a46565b9050611da16040830185611914565b611dae6060830184611c9a565b95945050505050565b600060e0820190508181036000830152611dd1818a611a46565b90508181036020830152611de58189611a46565b90508181036040830152611df98188611a46565b9050611e086060830187611c9a565b611e156080830186611c9a565b611e2260a0830185611914565b81810360c0830152611e348184611a46565b905098975050505050505050565b60006080820190508181036000830152611e5c8187611a46565b90508181036020830152611e708186611a46565b9050611e7f6040830185611c9a565b611e8c6060830184611914565b95945050505050565b60006020820190508181036000830152611eae81611ab0565b9050919050565b60006020820190508181036000830152611ece81611af0565b9050919050565b60006020820190508181036000830152611eee81611b30565b9050919050565b6000604051905081810181811067ffffffffffffffff82111715611f1c57611f1b612157565b5b8060405250919050565b600067ffffffffffffffff821115611f4157611f40612157565b5b601f19601f8301169050602081019050919050565b6000819050602082019050919050565b6000819050602082019050919050565b600081519050919050565b600081519050919050565b600081519050919050565b6000602082019050919050565b6000602082019050919050565b600082825260208201905092915050565b600082825260208201905092915050565b600082825260208201905092915050565b600082825260208201905092915050565b600081905092915050565b600061200b82612012565b9050919050565b600073ffffffffffffffffffffffffffffffffffffffff82169050919050565b6000819050919050565b82818337600083830152505050565b60005b8381101561206957808201518184015260208101905061204e565b83811115612078576000848401525b50505050565b6000600282049050600182168061209657607f821691505b602082108114156120aa576120a9612128565b5b50919050565b60006120bb82612032565b91507fffffffffffffffffffffffffffffffffffffffffffffffffffffffffffffffff8214156120ee576120ed6120f9565b5b600182019050919050565b7f4e487b7100000000000000000000000000000000000000000000000000000000600052601160045260246000fd5b7f4e487b7100000000000000000000000000000000000000000000000000000000600052602260045260246000fd5b7f4e487b7100000000000000000000000000000000000000000000000000000000600052604160045260246000fd5b6000601f19601f8301169050919050565b6121a081612000565b81146121ab57600080fd5b50565b6121b781612032565b81146121c257600080fd5b5056fea2646970667358221220c86b97c941ee2321b7c094ed1e80dfa374ebf1daa473fabccab3b924b5bd7ad264736f6c63430008000033",
  "immutableReferences": {},
  "source": "// SPDX-License-Identifier: MIT\r\npragma solidity ^0.8.0;\r\n\r\ncontract SecureDrive {\r\n    struct File {\r\n        string ipfsHash;\r\n        string fileName;\r\n        string fileType;\r\n        uint256 fileSize;\r\n        uint256 uploadTime;\r\n        address uploader;\r\n        string folderId;\r\n    }\r\n    \r\n    struct Folder {\r\n        string folderId;\r\n        string folderName;\r\n        uint256 createdTime;\r\n        address creator;\r\n    }\r\n    \r\n    mapping(string => File) public files;\r\n    mapping(string => Folder) public folders;\r\n    mapping(address => string[]) public userFiles;\r\n    mapping(address => string[]) public userFolders;\r\n    \r\n    event FileUploaded(\r\n        string indexed fileId,\r\n        string ipfsHash,\r\n        string fileName,\r\n        address uploader,\r\n        uint256 uploadTime\r\n    );\r\n    \r\n    event FolderCreated(\r\n        string indexed folderId,\r\n        string folderName,\r\n        address creator,\r\n        uint256 createdTime\r\n    );\r\n    \r\n    function uploadFile(\r\n        string memory _fileId,\r\n        string memory _ipfsHash,\r\n        string memory _fileName,\r\n        string memory _fileType,\r\n        uint256 _fileSize,\r\n        string memory _folderId\r\n    ) public {\r\n        require(bytes(_ipfsHash).length > 0, \"IPFS hash cannot be empty\");\r\n        require(bytes(_fileName).length > 0, \"File name cannot be empty\");\r\n        \r\n        files[_fileId] = File({\r\n            ipfsHash: _ipfsHash,\r\n            fileName: _fileName,\r\n            fileType: _fileType,\r\n            fileSize: _fileSize,\r\n            uploadTime: block.timestamp,\r\n            uploader: msg.sender,\r\n            folderId: _folderId\r\n        });\r\n        \r\n        userFiles[msg.sender].push(_fileId);\r\n        \r\n        emit FileUploaded(_fileId, _ipfsHash, _fileName, msg.sender, block.timestamp);\r\n    }\r\n    \r\n    function createFolder(string memory _folderId, string memory _folderName) public {\r\n        require(bytes(_folderName).length > 0, \"Folder name cannot be empty\");\r\n        \r\n        folders[_folderId] = Folder({\r\n            folderId: _folderId,\r\n            folderName: _folderName,\r\n            createdTime: block.timestamp,\r\n            creator: msg.sender\r\n        });\r\n        \r\n        userFolders[msg.sender].push(_folderId);\r\n        \r\n        emit FolderCreated(_folderId, _folderName, msg.sender, block.timestamp);\r\n    }\r\n    \r\n    function getUserFiles(address _user) public view returns (File[] memory) {\r\n        string[] memory fileIds = userFiles[_user];\r\n        File[] memory userFileList = new File[](fileIds.length);\r\n        \r\n        for (uint i = 0; i < fileIds.length; i++) {\r\n            userFileList[i] = files[fileIds[i]];\r\n        }\r\n        \r\n        return userFileList;\r\n    }\r\n    \r\n    function getUserFolders(address _user) public view returns (Folder[] memory) {\r\n        string[] memory folderIds = userFolders[_user];\r\n        Folder[] memory userFolderList = new Folder[](folderIds.length);\r\n        \r\n        for (uint i = 0; i < folderIds.length; i++) {\r\n            userFolderList[i] = folders[folderIds[i]];\r\n        }\r\n        \r\n        return userFolderList;\r\n    }\r\n}",
  "sourcePath": "C:\\Users\\shith\\secure-drive-3.0\\blockchain\\contracts\\SecureDrive.sol",
  "compiler": {
    "name": "solc",
    "version": "0.8.0+commit.c7dfd78e.Emscripten.clang"
  },
  "schemaVersion": "3.4.16",
  "updatedAt": "2025-11-29T07:58:59.595Z",
  "networkType": "ethereum",
  "devdoc": {
    "kind": "dev",
    "methods": {},
    "version": 1
  },
  "userdoc": {
    "kind": "user",
    "methods": {},
    "version": 1
  }
}